{
  "contractName": "HelloWorld",
  "abi": [
    {
      "inputs": [],
      "name": "helloWorld",
      "outputs": [
        {
          "internalType": "string",
          "name": "",
          "type": "string"
        }
      ],
      "stateMutability": "pure",
      "type": "function",
      "constant": true
    }
  ],
  "bytecode": "0x608060405234801561001057600080fd5b5060dd8061001f6000396000f3fe6080604052348015600f57600080fd5b506004361060285760003560e01c8063c605f76c14602d575b600080fd5b604080518082018252600581526448656c6c6f60d81b6020820152905160529190605b565b60405180910390f35b600060208083528351808285015260005b81811015608657858101830151858201604001528201606c565b506000604082860101526040601f19601f830116850101925050509291505056fea2646970667358221220034b420cc44664ea8437163a63d35d7488d45206f15462d489982479a1e901c864736f6c63430008110033",
  "immutableReferences": {},
  "source": "pragma solidity 0.8.17;\r\n\r\ncontract HelloWorld {\r\n    function helloWorld() public pure returns (string memory) {\r\n        return \"Hello\";\r\n    }\r\n}\r\n",
  "sourcePath": "G:\\project\\Blockchain\\truffle hello world\\contracts\\hello.sol",
  "compiler": {
    "name": "solc",
    "version": "0.8.17+commit.8df45f5f.Emscripten.clang"
  },
  "schemaVersion": "3.4.11",
  "updatedAt": "2022-12-09T02:31:11.416Z",
  "networkType": "ethereum",
  "devdoc": {
    "kind": "dev",
    "methods": {},
    "version": 1
  },
  "userdoc": {
    "kind": "user",
    "methods": {},
    "version": 1
  }
}