{
  "contractName": "MultiSigWallet",
  "abi": [
    {
      "inputs": [
        {
          "internalType": "address",
          "name": "owner1",
          "type": "address"
        },
        {
          "internalType": "address",
          "name": "owner2",
          "type": "address"
        },
        {
          "internalType": "address",
          "name": "owner3",
          "type": "address"
        },
        {
          "internalType": "uint256",
          "name": "limit",
          "type": "uint256"
        }
      ],
      "stateMutability": "nonpayable",
      "type": "constructor"
    },
    {
      "anonymous": false,
      "inputs": [
        {
          "indexed": true,
          "internalType": "uint256",
          "name": "_txnID",
          "type": "uint256"
        },
        {
          "indexed": false,
          "internalType": "address",
          "name": "By",
          "type": "address"
        },
        {
          "indexed": false,
          "internalType": "address",
          "name": "to",
          "type": "address"
        }
      ],
      "name": "TransactionConfirmed",
      "type": "event"
    },
    {
      "anonymous": false,
      "inputs": [
        {
          "indexed": true,
          "internalType": "uint256",
          "name": "_txnID",
          "type": "uint256"
        },
        {
          "indexed": false,
          "internalType": "address",
          "name": "By",
          "type": "address"
        },
        {
          "indexed": false,
          "internalType": "address",
          "name": "to",
          "type": "address"
        }
      ],
      "name": "TransactionRejected",
      "type": "event"
    },
    {
      "anonymous": false,
      "inputs": [
        {
          "indexed": false,
          "internalType": "uint256",
          "name": "amount",
          "type": "uint256"
        },
        {
          "indexed": true,
          "internalType": "address",
          "name": "depositedBy",
          "type": "address"
        }
      ],
      "name": "amountDeposited",
      "type": "event"
    },
    {
      "inputs": [],
      "name": "Balance",
      "outputs": [
        {
          "internalType": "uint256",
          "name": "",
          "type": "uint256"
        }
      ],
      "stateMutability": "view",
      "type": "function",
      "constant": true
    },
    {
      "inputs": [
        {
          "internalType": "address",
          "name": "_recipient",
          "type": "address"
        },
        {
          "internalType": "uint256",
          "name": "_amount",
          "type": "uint256"
        }
      ],
      "name": "RequestTransaction",
      "outputs": [
        {
          "components": [
            {
              "internalType": "uint256",
              "name": "txnID",
              "type": "uint256"
            },
            {
              "internalType": "address",
              "name": "creator",
              "type": "address"
            },
            {
              "internalType": "address",
              "name": "recipient",
              "type": "address"
            },
            {
              "internalType": "uint256",
              "name": "amount",
              "type": "uint256"
            },
            {
              "internalType": "uint256",
              "name": "approvals",
              "type": "uint256"
            },
            {
              "internalType": "uint256",
              "name": "rejections",
              "type": "uint256"
            },
            {
              "internalType": "enum MultiSigWallet.Status",
              "name": "status",
              "type": "uint8"
            }
          ],
          "internalType": "struct MultiSigWallet.Transaction",
          "name": "",
          "type": "tuple"
        }
      ],
      "stateMutability": "nonpayable",
      "type": "function"
    },
    {
      "inputs": [
        {
          "internalType": "uint256",
          "name": "_txnID",
          "type": "uint256"
        }
      ],
      "name": "ConfirmTransaction",
      "outputs": [
        {
          "internalType": "enum MultiSigWallet.Status",
          "name": "",
          "type": "uint8"
        }
      ],
      "stateMutability": "nonpayable",
      "type": "function"
    },
    {
      "inputs": [
        {
          "internalType": "uint256",
          "name": "_txnID",
          "type": "uint256"
        }
      ],
      "name": "RejectTransaction",
      "outputs": [
        {
          "internalType": "enum MultiSigWallet.Status",
          "name": "",
          "type": "uint8"
        }
      ],
      "stateMutability": "nonpayable",
      "type": "function"
    },
    {
      "inputs": [],
      "name": "GetTransactions",
      "outputs": [
        {
          "components": [
            {
              "internalType": "uint256",
              "name": "txnID",
              "type": "uint256"
            },
            {
              "internalType": "address",
              "name": "creator",
              "type": "address"
            },
            {
              "internalType": "address",
              "name": "recipient",
              "type": "address"
            },
            {
              "internalType": "uint256",
              "name": "amount",
              "type": "uint256"
            },
            {
              "internalType": "uint256",
              "name": "approvals",
              "type": "uint256"
            },
            {
              "internalType": "uint256",
              "name": "rejections",
              "type": "uint256"
            },
            {
              "internalType": "enum MultiSigWallet.Status",
              "name": "status",
              "type": "uint8"
            }
          ],
          "internalType": "struct MultiSigWallet.Transaction[]",
          "name": "",
          "type": "tuple[]"
        }
      ],
      "stateMutability": "view",
      "type": "function",
      "constant": true
    },
    {
      "inputs": [],
      "name": "deposit",
      "outputs": [],
      "stateMutability": "payable",
      "type": "function",
      "payable": true
    },
    {
      "inputs": [
        {
          "internalType": "uint256",
          "name": "_amount",
          "type": "uint256"
        }
      ],
      "name": "withdraw",
      "outputs": [],
      "stateMutability": "nonpayable",
      "type": "function"
    }
  ],
  "bytecode": "0x608060405234801561001057600080fd5b50604051610e85380380610e8583398101604081905261002f91610090565b600180546001600160a01b03199081166001600160a01b03968716179091556002805482169486169490941790935560038054909316919093161790556000556100db565b80516001600160a01b038116811461008b57600080fd5b919050565b600080600080608085870312156100a657600080fd5b6100af85610074565b93506100bd60208601610074565b92506100cb60408601610074565b6060959095015193969295505050565b610d9b806100ea6000396000f3fe6080604052600436106100705760003560e01c8063201ef2421161004e578063201ef242146100fc5780632e1a7d4d1461011c57806392f47b031461013e578063d0e30db01461016057600080fd5b80630c22acbd146100755780630ef67887146100ab5780631e99731b146100cf575b600080fd5b34801561008157600080fd5b50610095610090366004610b4d565b610168565b6040516100a29190610b9e565b60405180910390f35b3480156100b757600080fd5b506100c160045481565b6040519081526020016100a2565b3480156100db57600080fd5b506100ef6100ea366004610bb2565b6104a7565b6040516100a29190610c40565b34801561010857600080fd5b50610095610117366004610b4d565b610756565b34801561012857600080fd5b5061013c610137366004610b4d565b61090a565b005b34801561014a57600080fd5b506101536109bf565b6040516100a29190610c4e565b61013c610aa0565b600060018101546001600160a01b0316331480610191575060018001546001600160a01b031633145b806101a957506001600201546001600160a01b031633145b6101ce5760405162461bcd60e51b81526004016101c590610cb2565b60405180910390fd5b33600090815260066020908152604080832085845290915281205460ff1660028111156101fd576101fd610b66565b1461021a5760405162461bcd60e51b81526004016101c590610ce2565b3360009081526006602090815260408083208584529091529020805460ff19166001908117909155600580548490811061025657610256610c9c565b906000526020600020906007020160040160008282546102769190610d3f565b9091555050600580548390811061028f5761028f610c9c565b90600052602060002090600702016004015460020361047757600582815481106102bb576102bb610c9c565b906000526020600020906007020160020160009054906101000a90046001600160a01b03166001600160a01b03166108fc600584815481106102ff576102ff610c9c565b9060005260206000209060070201600301549081150290604051600060405180830381858888f1935050505015801561033c573d6000803e3d6000fd5b5060016005838154811061035257610352610c9c565b60009182526020909120600660079092020101805460ff1916600183600281111561037f5761037f610b66565b02179055506005828154811061039757610397610c9c565b906000526020600020906007020160030154600460008282546103ba9190610d52565b92505081905550817f7e9c207e7d0929665a28a63d0f3fe5b1328ff104252e9c5a6e86bc87165b774c600584815481106103f6576103f6610c9c565b906000526020600020906007020160010160009054906101000a90046001600160a01b03166005858154811061042e5761042e610c9c565b600091825260209091206002600790920201015460405161046e92916001600160a01b0316906001600160a01b0392831681529116602082015260400190565b60405180910390a25b6005828154811061048a5761048a610c9c565b600091825260209091206007909102016006015460ff1692915050565b6104af610aee565b6001600001546001600160a01b03163314806104d7575060018001546001600160a01b031633145b806104ef57506001600201546001600160a01b031633145b61050b5760405162461bcd60e51b81526004016101c590610cb2565b816004548111156105555760405162461bcd60e51b8152602060048201526014602482015273496e73756666696369656e742042616c616e636560601b60448201526064016101c5565b61055d610aee565b6005805480835233602084019081526001600160a01b038881166040860190815260608601898152600160808801818152600060a08a0181815260c08b01828152848a018b5599909152895160079098027f036b6384b5eca791c62761152d0c79bb0604c104a5fb6f4eb0703f3154bb3db0810198895596517f036b6384b5eca791c62761152d0c79bb0604c104a5fb6f4eb0703f3154bb3db1880180549188166001600160a01b031992831617905594517f036b6384b5eca791c62761152d0c79bb0604c104a5fb6f4eb0703f3154bb3db2880180549190971695169490941790945590517f036b6384b5eca791c62761152d0c79bb0604c104a5fb6f4eb0703f3154bb3db385015591517f036b6384b5eca791c62761152d0c79bb0604c104a5fb6f4eb0703f3154bb3db4840155517f036b6384b5eca791c62761152d0c79bb0604c104a5fb6f4eb0703f3154bb3db583015592517f036b6384b5eca791c62761152d0c79bb0604c104a5fb6f4eb0703f3154bb3db69091018054859460ff19909116908360028111156106f5576106f5610b66565b02179055505033600090815260066020526040812060055491925090829061071f90600190610d52565b81526020810191909152604001600020805460ff1916600183600281111561074957610749610b66565b0217905550949350505050565b600060018101546001600160a01b031633148061077f575060018001546001600160a01b031633145b8061079757506001600201546001600160a01b031633145b6107b35760405162461bcd60e51b81526004016101c590610cb2565b33600090815260066020908152604080832085845290915281205460ff1660028111156107e2576107e2610b66565b146107ff5760405162461bcd60e51b81526004016101c590610ce2565b3360009081526006602090815260408083208584529091529020805460ff1916600217905560058054600191908490811061083c5761083c610c9c565b9060005260206000209060070201600501600082825461085c9190610d3f565b9091555050600580548390811061087557610875610c9c565b906000526020600020906007020160050154600203610477576002600583815481106108a3576108a3610c9c565b60009182526020909120600660079092020101805460ff191660018360028111156108d0576108d0610b66565b0217905550817f2cee9d8dacddb8b295de904b2b06b944fb81bff35775a7dcd5714b6d93fb446f600584815481106103f6576103f6610c9c565b6001600001546001600160a01b0316331480610932575060018001546001600160a01b031633145b8061094a57506001600201546001600160a01b031633145b6109665760405162461bcd60e51b81526004016101c590610cb2565b806004548111156109b05760405162461bcd60e51b8152602060048201526014602482015273496e73756666696369656e742042616c616e636560601b60448201526064016101c5565b6109ba33836104a7565b505050565b60606005805480602002602001604051908101604052809291908181526020016000905b82821015610a975760008481526020908190206040805160e081018252600786029092018054835260018101546001600160a01b0390811694840194909452600280820154909416918301919091526003810154606083015260048101546080830152600581015460a083015260068101549192909160c084019160ff90911690811115610a7357610a73610b66565b6002811115610a8457610a84610b66565b81525050815260200190600101906109e3565b50505050905090565b3460046000828254610ab29190610d3f565b909155505060405134815233907faae246e8f9d3adab9a6ee02e7ed5b1edd3fee5085ae2771c92319da68dd86b139060200160405180910390a2565b6040518060e001604052806000815260200160006001600160a01b0316815260200160006001600160a01b0316815260200160008152602001600081526020016000815260200160006002811115610b4857610b48610b66565b905290565b600060208284031215610b5f57600080fd5b5035919050565b634e487b7160e01b600052602160045260246000fd5b60038110610b9a57634e487b7160e01b600052602160045260246000fd5b9052565b60208101610bac8284610b7c565b92915050565b60008060408385031215610bc557600080fd5b82356001600160a01b0381168114610bdc57600080fd5b946020939093013593505050565b80518252602081015160018060a01b0380821660208501528060408401511660408501525050606081015160608301526080810151608083015260a081015160a083015260c08101516109ba60c0840182610b7c565b60e08101610bac8284610bea565b6020808252825182820181905260009190848201906040850190845b81811015610c9057610c7d838551610bea565b9284019260e09290920191600101610c6a565b50909695505050505050565b634e487b7160e01b600052603260045260246000fd5b602080825260169082015275594f55275245204e4f5420415554484f52495345442160501b604082015260600190565b60208082526027908201527f594f5527564520414c5245414459205349474e45442054484953205452414e5360408201526620a1aa24a7a71760c91b606082015260800190565b634e487b7160e01b600052601160045260246000fd5b80820180821115610bac57610bac610d29565b81810381811115610bac57610bac610d2956fea2646970667358221220b0eabcb0a8ea0268cf526da3936b80abff0d3d9620befb3c4341279a5a25c7c064736f6c63430008110033",
  "immutableReferences": {},
  "source": "pragma solidity >=0.7.5;\r\npragma abicoder v2;\r\n\r\ncontract MultiSigWallet {\r\n    uint256 majority;\r\n    address[3] owners;\r\n    uint256 public Balance;\r\n    enum Status {\r\n        Pending,\r\n        Confirmed,\r\n        Rejected\r\n    }\r\n\r\n    //events\r\n    event amountDeposited(uint256 amount, address indexed depositedBy);\r\n    event TransactionConfirmed(uint256 indexed _txnID, address By, address to);\r\n    event TransactionRejected(uint256 indexed _txnID, address By, address to);\r\n\r\n    constructor(\r\n        address owner1,\r\n        address owner2,\r\n        address owner3,\r\n        uint256 limit\r\n    ) {\r\n        owners[0] = owner1;\r\n        owners[1] = owner2;\r\n        owners[2] = owner3;\r\n        majority = limit;\r\n    }\r\n\r\n    struct Transaction {\r\n        uint256 txnID;\r\n        address creator;\r\n        address recipient;\r\n        uint256 amount;\r\n        uint256 approvals;\r\n        uint256 rejections;\r\n        Status status;\r\n    }\r\n\r\n    Transaction[] transactionPool;\r\n\r\n    mapping(address => mapping(uint256 => Status)) transactionRecord;\r\n\r\n    modifier onlyOwner() {\r\n        require(\r\n            msg.sender == owners[0] ||\r\n                msg.sender == owners[1] ||\r\n                msg.sender == owners[2],\r\n            \"YOU'RE NOT AUTHORISED!\"\r\n        );\r\n        _;\r\n    }\r\n    modifier sufficientAmount(uint256 _amount) {\r\n        require(_amount <= Balance, \"Insufficient Balance\");\r\n        _;\r\n    }\r\n\r\n    function RequestTransaction(address _recipient, uint256 _amount)\r\n        public\r\n        onlyOwner\r\n        sufficientAmount(_amount)\r\n        returns (Transaction memory)\r\n    {\r\n        Transaction memory newTransaction;\r\n        newTransaction.txnID = transactionPool.length;\r\n        newTransaction.creator = msg.sender;\r\n        newTransaction.recipient = _recipient;\r\n        newTransaction.amount = _amount;\r\n        newTransaction.approvals = 1;\r\n        newTransaction.rejections = 0;\r\n        newTransaction.status = Status.Pending;\r\n        transactionPool.push(newTransaction);\r\n        //mapping record\r\n        transactionRecord[msg.sender][transactionPool.length - 1] = Status\r\n            .Pending;\r\n        return newTransaction;\r\n    }\r\n\r\n    function ConfirmTransaction(uint256 _txnID)\r\n        public\r\n        onlyOwner\r\n        returns (Status)\r\n    {\r\n        require(\r\n            transactionRecord[msg.sender][_txnID] == Status.Pending,\r\n            \"YOU'VE ALREADY SIGNED THIS TRANSACTION.\"\r\n        );\r\n        transactionRecord[msg.sender][_txnID] = Status.Confirmed;\r\n        transactionPool[_txnID].approvals += 1;\r\n        if (transactionPool[_txnID].approvals == 2) {\r\n            payable(transactionPool[_txnID].recipient).transfer(\r\n                transactionPool[_txnID].amount\r\n            );\r\n            transactionPool[_txnID].status = Status.Confirmed;\r\n            Balance -= transactionPool[_txnID].amount;\r\n            emit TransactionConfirmed(\r\n                _txnID,\r\n                transactionPool[_txnID].creator,\r\n                transactionPool[_txnID].recipient\r\n            );\r\n        }\r\n        return transactionPool[_txnID].status;\r\n    }\r\n\r\n    function RejectTransaction(uint256 _txnID)\r\n        public\r\n        onlyOwner\r\n        returns (Status)\r\n    {\r\n        require(\r\n            transactionRecord[msg.sender][_txnID] == Status.Pending,\r\n            \"YOU'VE ALREADY SIGNED THIS TRANSACTION.\"\r\n        );\r\n        transactionRecord[msg.sender][_txnID] = Status.Rejected;\r\n        transactionPool[_txnID].rejections += 1;\r\n        if (transactionPool[_txnID].rejections == 2) {\r\n            transactionPool[_txnID].status = Status.Rejected;\r\n            emit TransactionRejected(\r\n                _txnID,\r\n                transactionPool[_txnID].creator,\r\n                transactionPool[_txnID].recipient\r\n            );\r\n        }\r\n        return transactionPool[_txnID].status;\r\n    }\r\n\r\n    function GetTransactions() public view returns (Transaction[] memory) {\r\n        return transactionPool;\r\n    }\r\n\r\n    function deposit() public payable {\r\n        Balance += msg.value;\r\n        emit amountDeposited(msg.value, msg.sender);\r\n    }\r\n\r\n    function withdraw(uint256 _amount)\r\n        public\r\n        onlyOwner\r\n        sufficientAmount(_amount)\r\n    {\r\n        RequestTransaction(msg.sender, _amount);\r\n    }\r\n}\r\n",
  "sourcePath": "G:\\project\\Blockchain\\MultiSigWallet\\contracts\\MultiSigWallet.sol",
  "compiler": {
    "name": "solc",
    "version": "0.8.17+commit.8df45f5f.Emscripten.clang"
  },
  "schemaVersion": "3.4.11",
  "updatedAt": "2022-12-09T02:59:57.708Z",
  "networkType": "ethereum",
  "devdoc": {
    "kind": "dev",
    "methods": {},
    "version": 1
  },
  "userdoc": {
    "kind": "user",
    "methods": {},
    "version": 1
  }
}